{
  "_format": "hh-sol-artifact-1",
  "contractName": "TokaMint721",
  "sourceName": "contracts/TokaMint721.sol",
  "abi": [
    {
      "inputs": [
        {
          "internalType": "contract IERC20",
          "name": "degen",
          "type": "address"
        },
        {
          "internalType": "contract ISwapper",
          "name": "swapper",
          "type": "address"
        },
        {
          "internalType": "uint256",
          "name": "mintFee",
          "type": "uint256"
        },
        {
          "internalType": "uint256",
          "name": "tokaFee",
          "type": "uint256"
        },
        {
          "internalType": "address",
          "name": "toka",
          "type": "address"
        }
      ],
      "stateMutability": "nonpayable",
      "type": "constructor"
    },
    {
      "anonymous": false,
      "inputs": [
        {
          "indexed": true,
          "internalType": "bytes32",
          "name": "role",
          "type": "bytes32"
        },
        {
          "indexed": true,
          "internalType": "bytes32",
          "name": "previousAdminRole",
          "type": "bytes32"
        },
        {
          "indexed": true,
          "internalType": "bytes32",
          "name": "newAdminRole",
          "type": "bytes32"
        }
      ],
      "name": "RoleAdminChanged",
      "type": "event"
    },
    {
      "anonymous": false,
      "inputs": [
        {
          "indexed": true,
          "internalType": "bytes32",
          "name": "role",
          "type": "bytes32"
        },
        {
          "indexed": true,
          "internalType": "address",
          "name": "account",
          "type": "address"
        },
        {
          "indexed": true,
          "internalType": "address",
          "name": "sender",
          "type": "address"
        }
      ],
      "name": "RoleGranted",
      "type": "event"
    },
    {
      "anonymous": false,
      "inputs": [
        {
          "indexed": true,
          "internalType": "bytes32",
          "name": "role",
          "type": "bytes32"
        },
        {
          "indexed": true,
          "internalType": "address",
          "name": "account",
          "type": "address"
        },
        {
          "indexed": true,
          "internalType": "address",
          "name": "sender",
          "type": "address"
        }
      ],
      "name": "RoleRevoked",
      "type": "event"
    },
    {
      "inputs": [],
      "name": "DEFAULT_ADMIN_ROLE",
      "outputs": [
        {
          "internalType": "bytes32",
          "name": "",
          "type": "bytes32"
        }
      ],
      "stateMutability": "view",
      "type": "function"
    },
    {
      "inputs": [],
      "name": "MANAGER_ROLE",
      "outputs": [
        {
          "internalType": "bytes32",
          "name": "",
          "type": "bytes32"
        }
      ],
      "stateMutability": "view",
      "type": "function"
    },
    {
      "inputs": [],
      "name": "MINTER_ROLE",
      "outputs": [
        {
          "internalType": "bytes32",
          "name": "",
          "type": "bytes32"
        }
      ],
      "stateMutability": "view",
      "type": "function"
    },
    {
      "inputs": [],
      "name": "SALES_MANAGER_ROLE",
      "outputs": [
        {
          "internalType": "bytes32",
          "name": "",
          "type": "bytes32"
        }
      ],
      "stateMutability": "view",
      "type": "function"
    },
    {
      "inputs": [],
      "name": "_degen",
      "outputs": [
        {
          "internalType": "contract IERC20",
          "name": "",
          "type": "address"
        }
      ],
      "stateMutability": "view",
      "type": "function"
    },
    {
      "inputs": [
        {
          "internalType": "address",
          "name": "",
          "type": "address"
        },
        {
          "internalType": "uint256",
          "name": "",
          "type": "uint256"
        }
      ],
      "name": "_degenPricePerToken",
      "outputs": [
        {
          "internalType": "uint256",
          "name": "",
          "type": "uint256"
        }
      ],
      "stateMutability": "view",
      "type": "function"
    },
    {
      "inputs": [],
      "name": "_mintFee",
      "outputs": [
        {
          "internalType": "uint256",
          "name": "",
          "type": "uint256"
        }
      ],
      "stateMutability": "view",
      "type": "function"
    },
    {
      "inputs": [
        {
          "internalType": "contract IERC721Drop",
          "name": "nft",
          "type": "address"
        },
        {
          "internalType": "uint256",
          "name": "tokenId",
          "type": "uint256"
        },
        {
          "internalType": "uint256",
          "name": "price",
          "type": "uint256"
        }
      ],
      "name": "_setDegenPricePerToken",
      "outputs": [],
      "stateMutability": "nonpayable",
      "type": "function"
    },
    {
      "inputs": [
        {
          "internalType": "address",
          "name": "to",
          "type": "address"
        },
        {
          "internalType": "contract IERC721Drop",
          "name": "nft",
          "type": "address"
        },
        {
          "internalType": "uint256",
          "name": "tokenId",
          "type": "uint256"
        },
        {
          "internalType": "uint256",
          "name": "amount",
          "type": "uint256"
        }
      ],
      "name": "_swapMint",
      "outputs": [],
      "stateMutability": "nonpayable",
      "type": "function"
    },
    {
      "inputs": [],
      "name": "_swapper",
      "outputs": [
        {
          "internalType": "contract ISwapper",
          "name": "",
          "type": "address"
        }
      ],
      "stateMutability": "view",
      "type": "function"
    },
    {
      "inputs": [],
      "name": "_tokaFee",
      "outputs": [
        {
          "internalType": "uint256",
          "name": "",
          "type": "uint256"
        }
      ],
      "stateMutability": "view",
      "type": "function"
    },
    {
      "inputs": [
        {
          "internalType": "address",
          "name": "to",
          "type": "address"
        },
        {
          "internalType": "contract IERC721Drop",
          "name": "nft",
          "type": "address"
        },
        {
          "internalType": "uint256",
          "name": "tokenId",
          "type": "uint256"
        },
        {
          "internalType": "uint256",
          "name": "amount",
          "type": "uint256"
        }
      ],
      "name": "adminMint",
      "outputs": [],
      "stateMutability": "nonpayable",
      "type": "function"
    },
    {
      "inputs": [
        {
          "internalType": "contract IERC721Drop",
          "name": "nft",
          "type": "address"
        },
        {
          "internalType": "uint256",
          "name": "tokenId",
          "type": "uint256"
        }
      ],
      "name": "getDegenPricePerToken",
      "outputs": [
        {
          "internalType": "uint256",
          "name": "",
          "type": "uint256"
        }
      ],
      "stateMutability": "view",
      "type": "function"
    },
    {
      "inputs": [
        {
          "internalType": "bytes32",
          "name": "role",
          "type": "bytes32"
        }
      ],
      "name": "getRoleAdmin",
      "outputs": [
        {
          "internalType": "bytes32",
          "name": "",
          "type": "bytes32"
        }
      ],
      "stateMutability": "view",
      "type": "function"
    },
    {
      "inputs": [
        {
          "internalType": "contract IERC721Drop",
          "name": "nft",
          "type": "address"
        },
        {
          "internalType": "uint256",
          "name": "tokenId",
          "type": "uint256"
        }
      ],
      "name": "getSalesStrategy",
      "outputs": [
        {
          "components": [
            {
              "internalType": "uint104",
              "name": "publicSalePrice",
              "type": "uint104"
            },
            {
              "internalType": "uint32",
              "name": "maxSalePurchasePerAddress",
              "type": "uint32"
            },
            {
              "internalType": "uint64",
              "name": "publicSaleStart",
              "type": "uint64"
            },
            {
              "internalType": "uint64",
              "name": "publicSaleEnd",
              "type": "uint64"
            },
            {
              "internalType": "uint64",
              "name": "presaleStart",
              "type": "uint64"
            },
            {
              "internalType": "uint64",
              "name": "presaleEnd",
              "type": "uint64"
            },
            {
              "internalType": "bytes32",
              "name": "presaleMerkleRoot",
              "type": "bytes32"
            }
          ],
          "internalType": "struct IERC721Drop.SalesConfiguration",
          "name": "",
          "type": "tuple"
        }
      ],
      "stateMutability": "view",
      "type": "function"
    },
    {
      "inputs": [
        {
          "internalType": "contract IERC721Drop",
          "name": "nft",
          "type": "address"
        },
        {
          "internalType": "uint256",
          "name": "tokenId",
          "type": "uint256"
        }
      ],
      "name": "getTotalDegenPricePerToken",
      "outputs": [
        {
          "internalType": "uint256",
          "name": "",
          "type": "uint256"
        }
      ],
      "stateMutability": "view",
      "type": "function"
    },
    {
      "inputs": [
        {
          "internalType": "bytes32",
          "name": "role",
          "type": "bytes32"
        },
        {
          "internalType": "address",
          "name": "account",
          "type": "address"
        }
      ],
      "name": "grantRole",
      "outputs": [],
      "stateMutability": "nonpayable",
      "type": "function"
    },
    {
      "inputs": [
        {
          "internalType": "bytes32",
          "name": "role",
          "type": "bytes32"
        },
        {
          "internalType": "address",
          "name": "account",
          "type": "address"
        }
      ],
      "name": "hasRole",
      "outputs": [
        {
          "internalType": "bool",
          "name": "",
          "type": "bool"
        }
      ],
      "stateMutability": "view",
      "type": "function"
    },
    {
      "inputs": [
        {
          "internalType": "address",
          "name": "to",
          "type": "address"
        },
        {
          "internalType": "contract IERC721Drop",
          "name": "nft",
          "type": "address"
        },
        {
          "internalType": "uint256",
          "name": "tokenId",
          "type": "uint256"
        },
        {
          "internalType": "uint256",
          "name": "amount",
          "type": "uint256"
        }
      ],
      "name": "mintWithDegen",
      "outputs": [],
      "stateMutability": "payable",
      "type": "function"
    },
    {
      "inputs": [
        {
          "internalType": "bytes32",
          "name": "role",
          "type": "bytes32"
        },
        {
          "internalType": "address",
          "name": "account",
          "type": "address"
        }
      ],
      "name": "renounceRole",
      "outputs": [],
      "stateMutability": "nonpayable",
      "type": "function"
    },
    {
      "inputs": [
        {
          "internalType": "bytes32",
          "name": "role",
          "type": "bytes32"
        },
        {
          "internalType": "address",
          "name": "account",
          "type": "address"
        }
      ],
      "name": "revokeRole",
      "outputs": [],
      "stateMutability": "nonpayable",
      "type": "function"
    },
    {
      "inputs": [
        {
          "internalType": "contract IERC721Drop",
          "name": "nft",
          "type": "address"
        },
        {
          "internalType": "uint256",
          "name": "tokenId",
          "type": "uint256"
        },
        {
          "internalType": "uint256",
          "name": "price",
          "type": "uint256"
        }
      ],
      "name": "setDegenPricePerToken",
      "outputs": [],
      "stateMutability": "nonpayable",
      "type": "function"
    },
    {
      "inputs": [
        {
          "internalType": "uint256",
          "name": "mintFee",
          "type": "uint256"
        }
      ],
      "name": "setMintFee",
      "outputs": [],
      "stateMutability": "nonpayable",
      "type": "function"
    },
    {
      "inputs": [
        {
          "internalType": "uint256",
          "name": "tokaFee",
          "type": "uint256"
        }
      ],
      "name": "setTokaFee",
      "outputs": [],
      "stateMutability": "nonpayable",
      "type": "function"
    },
    {
      "inputs": [
        {
          "internalType": "bytes4",
          "name": "interfaceId",
          "type": "bytes4"
        }
      ],
      "name": "supportsInterface",
      "outputs": [
        {
          "internalType": "bool",
          "name": "",
          "type": "bool"
        }
      ],
      "stateMutability": "view",
      "type": "function"
    },
    {
      "inputs": [],
      "name": "withdrawDegen",
      "outputs": [],
      "stateMutability": "nonpayable",
      "type": "function"
    },
    {
      "inputs": [],
      "name": "withdrawEth",
      "outputs": [],
      "stateMutability": "nonpayable",
      "type": "function"
    },
    {
      "stateMutability": "payable",
      "type": "receive"
    }
  ],
  "bytecode": "0x60c0604052600680546001600160a01b0319167342000000000000000000000000000000000000061790557ff0887ba65ee2024ea881d91b74c2450ef19e1557f03bed3ea9f16b037cbe2dc96080527f5ebbf78043a2215b522b1366a193ec74dd1f54e441e841a87b9653246a9c49a660a0523480156200007f57600080fd5b506040516200204c3803806200204c833981016040819052620000a29162000265565b600280546001600160a01b038088166001600160a01b03199283161790925560038054878416908316179055600485905560058490556001805492841692909116919091179055620000f6600033620001ab565b620001227f241ecf16d79d0f8dbfb92cbc07fe17840425976cf0667f022fe9877caa831b0833620001ab565b60025460035460405163095ea7b360e01b81526001600160a01b039182166004820152600019602482015291169063095ea7b3906044016020604051808303816000875af115801562000179573d6000803e3d6000fd5b505050506040513d601f19601f820116820180604052508101906200019f9190620002ce565b505050505050620002f9565b6000828152602081815260408083206001600160a01b038516845290915290205460ff1662000248576000828152602081815260408083206001600160a01b03851684529091529020805460ff19166001179055620002073390565b6001600160a01b0316816001600160a01b0316837f2f8788117e7eff1d82e926ec794901d17c78024a50270940304540a733656f0d60405160405180910390a45b5050565b6001600160a01b03811681146200026257600080fd5b50565b600080600080600060a086880312156200027e57600080fd5b85516200028b816200024c565b60208701519095506200029e816200024c565b8094505060408601519250606086015191506080860151620002c0816200024c565b809150509295509295909350565b600060208284031215620002e157600080fd5b81518015158114620002f257600080fd5b9392505050565b60805160a051611d2662000326600039600081816105b501526111f5015260006105610152611d266000f3fe6080604052600436106101b05760003560e01c806391d14854116100ec578063d2cf7bc21161008a578063e26bd34311610064578063e26bd343146105a3578063ec87621c146105d7578063eddd0d9c1461060b578063f2a08abb1461062b57600080fd5b8063d2cf7bc21461052f578063d53913931461054f578063d547741f1461058357600080fd5b8063b336f21f116100c6578063b336f21f14610423578063bd76fa4314610443578063cd079fd7146104e2578063cf5751dd1461051a57600080fd5b806391d14854146103b5578063a0ef91df146103f9578063a217fddf1461040e57600080fd5b806336568abe11610159578063689f3eae11610133578063689f3eae1461031f57806376cd3c8614610332578063899d826b14610352578063905627771461037257600080fd5b806336568abe146102bf57806340820a7b146102df5780634ffc0c87146102ff57600080fd5b806323cef29f1161018a57806323cef29f14610259578063248a9ca31461026f5780632f2ff15d1461029f57600080fd5b806301ffc9a7146101bc5780630bb38ab3146101f15780631c9155881461021357600080fd5b366101b757005b600080fd5b3480156101c857600080fd5b506101dc6101d73660046118f5565b610641565b60405190151581526020015b60405180910390f35b3480156101fd57600080fd5b5061021161020c366004611934565b6106aa565b005b34801561021f57600080fd5b5061024b61022e36600461197a565b600760209081526000928352604080842090915290825290205481565b6040519081526020016101e8565b34801561026557600080fd5b5061024b60055481565b34801561027b57600080fd5b5061024b61028a3660046119a6565b60009081526020819052604090206001015490565b3480156102ab57600080fd5b506102116102ba3660046119bf565b6109c3565b3480156102cb57600080fd5b506102116102da3660046119bf565b6109ed565b3480156102eb57600080fd5b5061024b6102fa36600461197a565b610a7e565b34801561030b57600080fd5b5061021161031a366004611934565b610ab7565b61021161032d366004611934565b610b9d565b34801561033e57600080fd5b5061021161034d3660046119ef565b610fb5565b34801561035e57600080fd5b5061021161036d3660046119a6565b611065565b34801561037e57600080fd5b5061024b61038d36600461197a565b6001600160a01b03919091166000908152600760209081526040808320938352929052205490565b3480156103c157600080fd5b506101dc6103d03660046119bf565b6000918252602082815260408084206001600160a01b0393909316845291905290205460ff1690565b34801561040557600080fd5b506102116110d6565b34801561041a57600080fd5b5061024b600081565b34801561042f57600080fd5b5061021161043e3660046119ef565b611171565b34801561044f57600080fd5b5061046361045e36600461197a565b6112e6565b6040516101e89190600060e0820190506cffffffffffffffffffffffffff835116825263ffffffff6020840151166020830152604083015167ffffffffffffffff80821660408501528060608601511660608501528060808601511660808501528060a08601511660a0850152505060c083015160c083015292915050565b3480156104ee57600080fd5b50600254610502906001600160a01b031681565b6040516001600160a01b0390911681526020016101e8565b34801561052657600080fd5b50610211611381565b34801561053b57600080fd5b50600354610502906001600160a01b031681565b34801561055b57600080fd5b5061024b7f000000000000000000000000000000000000000000000000000000000000000081565b34801561058f57600080fd5b5061021161059e3660046119bf565b6114d2565b3480156105af57600080fd5b5061024b7f000000000000000000000000000000000000000000000000000000000000000081565b3480156105e357600080fd5b5061024b7f241ecf16d79d0f8dbfb92cbc07fe17840425976cf0667f022fe9877caa831b0881565b34801561061757600080fd5b506102116106263660046119a6565b6114f7565b34801561063757600080fd5b5061024b60045481565b60006001600160e01b031982167f7965db0b0000000000000000000000000000000000000000000000000000000014806106a457507f01ffc9a7000000000000000000000000000000000000000000000000000000006001600160e01b03198316145b92915050565b6000816004546106ba9190611a3a565b6002546040517f23b872dd000000000000000000000000000000000000000000000000000000008152336004820152306024820152604481018390529192506001600160a01b0316906323b872dd906064016020604051808303816000875af115801561072b573d6000803e3d6000fd5b505050506040513d601f19601f8201168201806040525081019061074f9190611a51565b506003546040517f94b918de000000000000000000000000000000000000000000000000000000008152600481018390526001600160a01b03909116906394b918de90602401600060405180830381600087803b1580156107af57600080fd5b505af11580156107c3573d6000803e3d6000fd5b50506006546040516370a0823160e01b81523060048201526001600160a01b039091169250632e1a7d4d915082906370a0823190602401602060405180830381865afa158015610817573d6000803e3d6000fd5b505050506040513d601f19601f8201168201806040525081019061083b9190611a73565b6040518263ffffffff1660e01b815260040161085991815260200190565b600060405180830381600087803b15801561087357600080fd5b505af1158015610887573d6000803e3d6000fd5b50506040517fee37be3900000000000000000000000000000000000000000000000000000000815260048101859052600092506001600160a01b038716915063ee37be39906024016040805180830381865afa1580156108eb573d6000803e3d6000fd5b505050506040513d601f19601f8201168201806040525081019061090f9190611a8c565b6001546040517f453681810000000000000000000000000000000000000000000000000000000081526001600160a01b038a81166004830152602482018890526080604483015260006084830152918216606482015291935087169150634536818190839060a40160206040518083038185885af1158015610995573d6000803e3d6000fd5b50505050506040513d601f19601f820116820180604052508101906109ba9190611a73565b50505050505050565b6000828152602081905260409020600101546109de81611568565b6109e88383611572565b505050565b6001600160a01b0381163314610a705760405162461bcd60e51b815260206004820152602f60248201527f416363657373436f6e74726f6c3a2063616e206f6e6c792072656e6f756e636560448201527f20726f6c657320666f722073656c66000000000000000000000000000000000060648201526084015b60405180910390fd5b610a7a8282611610565b5050565b6004546001600160a01b03831660009081526007602090815260408083208584529091528120549091610ab091611aba565b9392505050565b3360009081527fe84508f2c7fa9c351146748b3025cb78b45df37d868e48c6a75102fecdeee645602052604090205460ff16610b235760405162461bcd60e51b815260206004820152600b60248201526a2737ba1036b0b730b3b2b960a91b6044820152606401610a67565b60405163e58306f960e01b81526001600160a01b0385811660048301526024820183905284169063e58306f9906044016020604051808303816000875af1158015610b72573d6000803e3d6000fd5b505050506040513d601f19601f82011682018060405250810190610b969190611a73565b5050505050565b6001600160a01b03831660009081526007602090815260408083208584529091528120549003610bd857610bd3848484846106aa565b610faf565b6000836001600160a01b0316631d2c0b386040518163ffffffff1660e01b815260040160e060405180830381865afa158015610c18573d6000803e3d6000fd5b505050506040513d601f19601f82011682018060405250810190610c3c9190611b31565b604081015190915067ffffffffffffffff1615610ccb57806040015167ffffffffffffffff164210158015610c7f5750806060015167ffffffffffffffff164211155b610ccb5760405162461bcd60e51b815260206004820152601060248201527f53616c65206e6f74206f6e676f696e67000000000000000000000000000000006044820152606401610a67565b602081015163ffffffff161580610cec5750806020015163ffffffff168211155b610d385760405162461bcd60e51b815260206004820152601e60248201527f4d617820746f6b656e73207065722061646472657373207265616368656400006044820152606401610a67565b6002546001600160a01b03858116600090815260076020908152604080832088845290915290205460045491909216916323b872dd91339130918791610d7d91611aba565b610d879190611a3a565b6040516001600160e01b031960e086901b1681526001600160a01b03938416600482015292909116602483015260448201526064016020604051808303816000875af1158015610ddb573d6000803e3d6000fd5b505050506040513d601f19601f82011682018060405250810190610dff9190611a51565b5060405163e58306f960e01b81526001600160a01b0386811660048301526024820184905285169063e58306f9906044016020604051808303816000875af1158015610e4f573d6000803e3d6000fd5b505050506040513d601f19601f82011682018060405250810190610e739190611a73565b506040517f2a55205a00000000000000000000000000000000000000000000000000000000815260016004820181905260248201526000906001600160a01b03861690632a55205a906044016040805180830381865afa158015610edb573d6000803e3d6000fd5b505050506040513d601f19601f82011682018060405250810190610eff9190611a8c565b506002546001600160a01b0387811660009081526007602090815260408083208a8452909152902054929350169063a9059cbb908390610f40908790611a3a565b6040516001600160e01b031960e085901b1681526001600160a01b03909216600483015260248201526044016020604051808303816000875af1158015610f8b573d6000803e3d6000fd5b505050506040513d601f19601f820116820180604052508101906109ba9190611a51565b50505050565b7f241ecf16d79d0f8dbfb92cbc07fe17840425976cf0667f022fe9877caa831b08610fdf81611568565b6040517fb336f21f0000000000000000000000000000000000000000000000000000000081526001600160a01b03851660048201526024810184905260448101839052309063b336f21f90606401600060405180830381600087803b15801561104757600080fd5b505af115801561105b573d6000803e3d6000fd5b5050505050505050565b3360009081527fe84508f2c7fa9c351146748b3025cb78b45df37d868e48c6a75102fecdeee645602052604090205460ff166110d15760405162461bcd60e51b815260206004820152600b60248201526a2737ba1036b0b730b3b2b960a91b6044820152606401610a67565b600555565b3360009081527fe84508f2c7fa9c351146748b3025cb78b45df37d868e48c6a75102fecdeee645602052604090205460ff166111425760405162461bcd60e51b815260206004820152600b60248201526a2737ba1036b0b730b3b2b960a91b6044820152606401610a67565b60405133904780156108fc02916000818181858888f1935050505015801561116e573d6000803e3d6000fd5b50565b604051632474521560e21b8152600060048201523360248201526001600160a01b038416906391d1485490604401602060405180830381865afa1580156111bc573d6000803e3d6000fd5b505050506040513d601f19601f820116820180604052508101906111e09190611a51565b806112745750604051632474521560e21b81527f000000000000000000000000000000000000000000000000000000000000000060048201523360248201526001600160a01b038416906391d1485490604401602060405180830381865afa158015611250573d6000803e3d6000fd5b505050506040513d601f19601f820116820180604052508101906112749190611a51565b6112c05760405162461bcd60e51b815260206004820152600960248201527f4e6f742061646d696e00000000000000000000000000000000000000000000006044820152606401610a67565b6001600160a01b0390921660009081526007602090815260408083209383529290522055565b6040805160e081018252600080825260208201819052918101829052606081018290526080810182905260a0810182905260c0810191909152826001600160a01b0316631d2c0b386040518163ffffffff1660e01b815260040160e060405180830381865afa15801561135d573d6000803e3d6000fd5b505050506040513d601f19601f82011682018060405250810190610ab09190611b31565b3360009081527fe84508f2c7fa9c351146748b3025cb78b45df37d868e48c6a75102fecdeee645602052604090205460ff166113ed5760405162461bcd60e51b815260206004820152600b60248201526a2737ba1036b0b730b3b2b960a91b6044820152606401610a67565b6002546040516370a0823160e01b81523060048201526001600160a01b039091169063a9059cbb90339083906370a0823190602401602060405180830381865afa15801561143f573d6000803e3d6000fd5b505050506040513d601f19601f820116820180604052508101906114639190611a73565b6040516001600160e01b031960e085901b1681526001600160a01b03909216600483015260248201526044016020604051808303816000875af11580156114ae573d6000803e3d6000fd5b505050506040513d601f19601f8201168201806040525081019061116e9190611a51565b6000828152602081905260409020600101546114ed81611568565b6109e88383611610565b3360009081527fe84508f2c7fa9c351146748b3025cb78b45df37d868e48c6a75102fecdeee645602052604090205460ff166115635760405162461bcd60e51b815260206004820152600b60248201526a2737ba1036b0b730b3b2b960a91b6044820152606401610a67565b600455565b61116e813361168f565b6000828152602081815260408083206001600160a01b038516845290915290205460ff16610a7a576000828152602081815260408083206001600160a01b03851684529091529020805460ff191660011790556115cc3390565b6001600160a01b0316816001600160a01b0316837f2f8788117e7eff1d82e926ec794901d17c78024a50270940304540a733656f0d60405160405180910390a45050565b6000828152602081815260408083206001600160a01b038516845290915290205460ff1615610a7a576000828152602081815260408083206001600160a01b0385168085529252808320805460ff1916905551339285917ff6391f5c32d9c69d2a47ea670b442974b53935d1edc7fd64eb21e047a839171b9190a45050565b6000828152602081815260408083206001600160a01b038516845290915290205460ff16610a7a576116c081611702565b6116cb836020611714565b6040516020016116dc929190611c0f565b60408051601f198184030181529082905262461bcd60e51b8252610a6791600401611c90565b60606106a46001600160a01b03831660145b60606000611723836002611a3a565b61172e906002611aba565b67ffffffffffffffff81111561174657611746611acd565b6040519080825280601f01601f191660200182016040528015611770576020820181803683370190505b5090507f3000000000000000000000000000000000000000000000000000000000000000816000815181106117a7576117a7611cc3565b60200101906001600160f81b031916908160001a9053507f7800000000000000000000000000000000000000000000000000000000000000816001815181106117f2576117f2611cc3565b60200101906001600160f81b031916908160001a9053506000611816846002611a3a565b611821906001611aba565b90505b60018111156118a6577f303132333435363738396162636465660000000000000000000000000000000085600f166010811061186257611862611cc3565b1a60f81b82828151811061187857611878611cc3565b60200101906001600160f81b031916908160001a90535060049490941c9361189f81611cd9565b9050611824565b508315610ab05760405162461bcd60e51b815260206004820181905260248201527f537472696e67733a20686578206c656e67746820696e73756666696369656e746044820152606401610a67565b60006020828403121561190757600080fd5b81356001600160e01b031981168114610ab057600080fd5b6001600160a01b038116811461116e57600080fd5b6000806000806080858703121561194a57600080fd5b84356119558161191f565b935060208501356119658161191f565b93969395505050506040820135916060013590565b6000806040838503121561198d57600080fd5b82356119988161191f565b946020939093013593505050565b6000602082840312156119b857600080fd5b5035919050565b600080604083850312156119d257600080fd5b8235915060208301356119e48161191f565b809150509250929050565b600080600060608486031215611a0457600080fd5b8335611a0f8161191f565b95602085013595506040909401359392505050565b634e487b7160e01b600052601160045260246000fd5b80820281158282048414176106a4576106a4611a24565b600060208284031215611a6357600080fd5b81518015158114610ab057600080fd5b600060208284031215611a8557600080fd5b5051919050565b60008060408385031215611a9f57600080fd5b8251611aaa8161191f565b6020939093015192949293505050565b808201808211156106a4576106a4611a24565b634e487b7160e01b600052604160045260246000fd5b80516cffffffffffffffffffffffffff81168114611b0057600080fd5b919050565b805163ffffffff81168114611b0057600080fd5b805167ffffffffffffffff81168114611b0057600080fd5b600060e08284031215611b4357600080fd5b60405160e0810181811067ffffffffffffffff82111715611b7457634e487b7160e01b600052604160045260246000fd5b604052611b8083611ae3565b8152611b8e60208401611b05565b6020820152611b9f60408401611b19565b6040820152611bb060608401611b19565b6060820152611bc160808401611b19565b6080820152611bd260a08401611b19565b60a082015260c083015160c08201528091505092915050565b60005b83811015611c06578181015183820152602001611bee565b50506000910152565b7f416363657373436f6e74726f6c3a206163636f756e7420000000000000000000815260008351611c47816017850160208801611beb565b7f206973206d697373696e6720726f6c65200000000000000000000000000000006017918401918201528351611c84816028840160208801611beb565b01602801949350505050565b6020815260008251806020840152611caf816040850160208701611beb565b601f01601f19169190910160400192915050565b634e487b7160e01b600052603260045260246000fd5b600081611ce857611ce8611a24565b50600019019056fea26469706673582212204d94d69ad774bcf5893049044383d55ea51e22a950f4ee48bfe5beaa1f42943464736f6c63430008110033",
  "linkReferences": {},
  "deployedLinkReferences": {}
}