{
  "_format": "hh-sol-artifact-1",
  "contractName": "TokaMint1155",
  "sourceName": "contracts/TokaMint1155.sol",
  "abi": [
    {
      "inputs": [
        {
          "internalType": "contract IERC20",
          "name": "degen",
          "type": "address"
        },
        {
          "internalType": "contract IZoraCreatorFixedPriceSaleStrategy",
          "name": "fixedPriceSaleStrategy",
          "type": "address"
        },
        {
          "internalType": "contract ISwapper",
          "name": "swapper",
          "type": "address"
        },
        {
          "internalType": "uint256",
          "name": "mintFee",
          "type": "uint256"
        },
        {
          "internalType": "uint256",
          "name": "tokaFee",
          "type": "uint256"
        },
        {
          "internalType": "address",
          "name": "toka",
          "type": "address"
        }
      ],
      "stateMutability": "nonpayable",
      "type": "constructor"
    },
    {
      "anonymous": false,
      "inputs": [
        {
          "indexed": true,
          "internalType": "bytes32",
          "name": "role",
          "type": "bytes32"
        },
        {
          "indexed": true,
          "internalType": "bytes32",
          "name": "previousAdminRole",
          "type": "bytes32"
        },
        {
          "indexed": true,
          "internalType": "bytes32",
          "name": "newAdminRole",
          "type": "bytes32"
        }
      ],
      "name": "RoleAdminChanged",
      "type": "event"
    },
    {
      "anonymous": false,
      "inputs": [
        {
          "indexed": true,
          "internalType": "bytes32",
          "name": "role",
          "type": "bytes32"
        },
        {
          "indexed": true,
          "internalType": "address",
          "name": "account",
          "type": "address"
        },
        {
          "indexed": true,
          "internalType": "address",
          "name": "sender",
          "type": "address"
        }
      ],
      "name": "RoleGranted",
      "type": "event"
    },
    {
      "anonymous": false,
      "inputs": [
        {
          "indexed": true,
          "internalType": "bytes32",
          "name": "role",
          "type": "bytes32"
        },
        {
          "indexed": true,
          "internalType": "address",
          "name": "account",
          "type": "address"
        },
        {
          "indexed": true,
          "internalType": "address",
          "name": "sender",
          "type": "address"
        }
      ],
      "name": "RoleRevoked",
      "type": "event"
    },
    {
      "inputs": [],
      "name": "DEFAULT_ADMIN_ROLE",
      "outputs": [
        {
          "internalType": "bytes32",
          "name": "",
          "type": "bytes32"
        }
      ],
      "stateMutability": "view",
      "type": "function"
    },
    {
      "inputs": [],
      "name": "MANAGER_ROLE",
      "outputs": [
        {
          "internalType": "bytes32",
          "name": "",
          "type": "bytes32"
        }
      ],
      "stateMutability": "view",
      "type": "function"
    },
    {
      "inputs": [],
      "name": "_degen",
      "outputs": [
        {
          "internalType": "contract IERC20",
          "name": "",
          "type": "address"
        }
      ],
      "stateMutability": "view",
      "type": "function"
    },
    {
      "inputs": [
        {
          "internalType": "address",
          "name": "",
          "type": "address"
        },
        {
          "internalType": "uint256",
          "name": "",
          "type": "uint256"
        }
      ],
      "name": "_degenPricePerToken",
      "outputs": [
        {
          "internalType": "uint256",
          "name": "",
          "type": "uint256"
        }
      ],
      "stateMutability": "view",
      "type": "function"
    },
    {
      "inputs": [],
      "name": "_fixedPriceSaleStrategy",
      "outputs": [
        {
          "internalType": "contract IZoraCreatorFixedPriceSaleStrategy",
          "name": "",
          "type": "address"
        }
      ],
      "stateMutability": "view",
      "type": "function"
    },
    {
      "inputs": [],
      "name": "_mintFee",
      "outputs": [
        {
          "internalType": "uint256",
          "name": "",
          "type": "uint256"
        }
      ],
      "stateMutability": "view",
      "type": "function"
    },
    {
      "inputs": [
        {
          "internalType": "contract IZoraCreator1155",
          "name": "nft",
          "type": "address"
        },
        {
          "internalType": "uint256",
          "name": "tokenId",
          "type": "uint256"
        },
        {
          "internalType": "uint256",
          "name": "price",
          "type": "uint256"
        }
      ],
      "name": "_setDegenPricePerToken",
      "outputs": [],
      "stateMutability": "nonpayable",
      "type": "function"
    },
    {
      "inputs": [
        {
          "internalType": "address",
          "name": "to",
          "type": "address"
        },
        {
          "internalType": "contract IZoraCreator1155",
          "name": "nft",
          "type": "address"
        },
        {
          "internalType": "uint256",
          "name": "tokenId",
          "type": "uint256"
        },
        {
          "internalType": "uint256",
          "name": "amount",
          "type": "uint256"
        }
      ],
      "name": "_swapMint",
      "outputs": [],
      "stateMutability": "nonpayable",
      "type": "function"
    },
    {
      "inputs": [],
      "name": "_swapper",
      "outputs": [
        {
          "internalType": "contract ISwapper",
          "name": "",
          "type": "address"
        }
      ],
      "stateMutability": "view",
      "type": "function"
    },
    {
      "inputs": [],
      "name": "_tokaFee",
      "outputs": [
        {
          "internalType": "uint256",
          "name": "",
          "type": "uint256"
        }
      ],
      "stateMutability": "view",
      "type": "function"
    },
    {
      "inputs": [
        {
          "internalType": "address",
          "name": "to",
          "type": "address"
        },
        {
          "internalType": "contract IZoraCreator1155",
          "name": "nft",
          "type": "address"
        },
        {
          "internalType": "uint256",
          "name": "tokenId",
          "type": "uint256"
        },
        {
          "internalType": "uint256",
          "name": "amount",
          "type": "uint256"
        }
      ],
      "name": "adminMint",
      "outputs": [],
      "stateMutability": "nonpayable",
      "type": "function"
    },
    {
      "inputs": [
        {
          "internalType": "contract IZoraCreator1155",
          "name": "nft",
          "type": "address"
        },
        {
          "internalType": "uint256",
          "name": "tokenId",
          "type": "uint256"
        }
      ],
      "name": "getDegenPricePerToken",
      "outputs": [
        {
          "internalType": "uint256",
          "name": "",
          "type": "uint256"
        }
      ],
      "stateMutability": "view",
      "type": "function"
    },
    {
      "inputs": [
        {
          "internalType": "bytes32",
          "name": "role",
          "type": "bytes32"
        }
      ],
      "name": "getRoleAdmin",
      "outputs": [
        {
          "internalType": "bytes32",
          "name": "",
          "type": "bytes32"
        }
      ],
      "stateMutability": "view",
      "type": "function"
    },
    {
      "inputs": [
        {
          "internalType": "contract IZoraCreator1155",
          "name": "nft",
          "type": "address"
        },
        {
          "internalType": "uint256",
          "name": "tokenId",
          "type": "uint256"
        }
      ],
      "name": "getSalesStrategy",
      "outputs": [
        {
          "components": [
            {
              "internalType": "uint64",
              "name": "saleStart",
              "type": "uint64"
            },
            {
              "internalType": "uint64",
              "name": "saleEnd",
              "type": "uint64"
            },
            {
              "internalType": "uint64",
              "name": "maxTokensPerAddress",
              "type": "uint64"
            },
            {
              "internalType": "uint96",
              "name": "pricePerToken",
              "type": "uint96"
            },
            {
              "internalType": "address",
              "name": "fundsRecipient",
              "type": "address"
            }
          ],
          "internalType": "struct IZoraCreatorFixedPriceSaleStrategy.SalesConfig",
          "name": "",
          "type": "tuple"
        }
      ],
      "stateMutability": "view",
      "type": "function"
    },
    {
      "inputs": [
        {
          "internalType": "contract IZoraCreator1155",
          "name": "nft",
          "type": "address"
        },
        {
          "internalType": "uint256",
          "name": "tokenId",
          "type": "uint256"
        }
      ],
      "name": "getTotalDegenPricePerToken",
      "outputs": [
        {
          "internalType": "uint256",
          "name": "",
          "type": "uint256"
        }
      ],
      "stateMutability": "view",
      "type": "function"
    },
    {
      "inputs": [
        {
          "internalType": "bytes32",
          "name": "role",
          "type": "bytes32"
        },
        {
          "internalType": "address",
          "name": "account",
          "type": "address"
        }
      ],
      "name": "grantRole",
      "outputs": [],
      "stateMutability": "nonpayable",
      "type": "function"
    },
    {
      "inputs": [
        {
          "internalType": "bytes32",
          "name": "role",
          "type": "bytes32"
        },
        {
          "internalType": "address",
          "name": "account",
          "type": "address"
        }
      ],
      "name": "hasRole",
      "outputs": [
        {
          "internalType": "bool",
          "name": "",
          "type": "bool"
        }
      ],
      "stateMutability": "view",
      "type": "function"
    },
    {
      "inputs": [
        {
          "internalType": "address",
          "name": "to",
          "type": "address"
        },
        {
          "internalType": "contract IZoraCreator1155",
          "name": "nft",
          "type": "address"
        },
        {
          "internalType": "uint256",
          "name": "tokenId",
          "type": "uint256"
        },
        {
          "internalType": "uint256",
          "name": "amount",
          "type": "uint256"
        }
      ],
      "name": "mintWithDegen",
      "outputs": [],
      "stateMutability": "payable",
      "type": "function"
    },
    {
      "inputs": [
        {
          "internalType": "bytes32",
          "name": "role",
          "type": "bytes32"
        },
        {
          "internalType": "address",
          "name": "account",
          "type": "address"
        }
      ],
      "name": "renounceRole",
      "outputs": [],
      "stateMutability": "nonpayable",
      "type": "function"
    },
    {
      "inputs": [
        {
          "internalType": "bytes32",
          "name": "role",
          "type": "bytes32"
        },
        {
          "internalType": "address",
          "name": "account",
          "type": "address"
        }
      ],
      "name": "revokeRole",
      "outputs": [],
      "stateMutability": "nonpayable",
      "type": "function"
    },
    {
      "inputs": [
        {
          "internalType": "contract IZoraCreator1155",
          "name": "nft",
          "type": "address"
        },
        {
          "internalType": "uint256",
          "name": "tokenId",
          "type": "uint256"
        },
        {
          "internalType": "uint256",
          "name": "price",
          "type": "uint256"
        }
      ],
      "name": "setDegenPricePerToken",
      "outputs": [],
      "stateMutability": "nonpayable",
      "type": "function"
    },
    {
      "inputs": [
        {
          "internalType": "uint256",
          "name": "mintFee",
          "type": "uint256"
        }
      ],
      "name": "setMintFee",
      "outputs": [],
      "stateMutability": "nonpayable",
      "type": "function"
    },
    {
      "inputs": [
        {
          "internalType": "uint256",
          "name": "tokaFee",
          "type": "uint256"
        }
      ],
      "name": "setTokaFee",
      "outputs": [],
      "stateMutability": "nonpayable",
      "type": "function"
    },
    {
      "inputs": [
        {
          "internalType": "bytes4",
          "name": "interfaceId",
          "type": "bytes4"
        }
      ],
      "name": "supportsInterface",
      "outputs": [
        {
          "internalType": "bool",
          "name": "",
          "type": "bool"
        }
      ],
      "stateMutability": "view",
      "type": "function"
    },
    {
      "inputs": [],
      "name": "withdrawDegen",
      "outputs": [],
      "stateMutability": "nonpayable",
      "type": "function"
    },
    {
      "inputs": [],
      "name": "withdrawEth",
      "outputs": [],
      "stateMutability": "nonpayable",
      "type": "function"
    },
    {
      "stateMutability": "payable",
      "type": "receive"
    }
  ],
  "bytecode": "0x6080604052600780546001600160a01b0319167342000000000000000000000000000000000000061790553480156200003757600080fd5b5060405162002054380380620020548339810160408190526200005a916200022f565b600280546001600160a01b038089166001600160a01b0319928316179092556003805488841690831617905560048054878416908316179055600585905560068490556001805492841692909116919091179055620000bb60003362000175565b620000e77f241ecf16d79d0f8dbfb92cbc07fe17840425976cf0667f022fe9877caa831b083362000175565b6002546004805460405163095ea7b360e01b81526001600160a01b039182169281019290925260001960248301529091169063095ea7b3906044016020604051808303816000875af115801562000142573d6000803e3d6000fd5b505050506040513d601f19601f82011682018060405250810190620001689190620002ac565b50505050505050620002d7565b6000828152602081815260408083206001600160a01b038516845290915290205460ff1662000212576000828152602081815260408083206001600160a01b03851684529091529020805460ff19166001179055620001d13390565b6001600160a01b0316816001600160a01b0316837f2f8788117e7eff1d82e926ec794901d17c78024a50270940304540a733656f0d60405160405180910390a45b5050565b6001600160a01b03811681146200022c57600080fd5b50565b60008060008060008060c087890312156200024957600080fd5b8651620002568162000216565b6020880151909650620002698162000216565b60408801519095506200027c8162000216565b80945050606087015192506080870151915060a08701516200029e8162000216565b809150509295509295509295565b600060208284031215620002bf57600080fd5b81518015158114620002d057600080fd5b9392505050565b611d6d80620002e76000396000f3fe6080604052600436106101a55760003560e01c806390562777116100e1578063cd079fd71161008a578063d547741f11610064578063d547741f14610547578063ec87621c14610567578063eddd0d9c1461059b578063f2a08abb146105bb57600080fd5b8063cd079fd7146104f2578063cf5751dd14610512578063d2cf7bc21461052757600080fd5b8063a217fddf116100bb578063a217fddf1461043b578063b336f21f14610450578063bd76fa431461047057600080fd5b8063905627771461039f57806391d14854146103e2578063a0ef91df1461042657600080fd5b806336568abe1161014e578063524c420d11610128578063524c420d14610314578063689f3eae1461034c57806376cd3c861461035f578063899d826b1461037f57600080fd5b806336568abe146102b457806340820a7b146102d45780634ffc0c87146102f457600080fd5b806323cef29f1161017f57806323cef29f1461024e578063248a9ca3146102645780632f2ff15d1461029457600080fd5b806301ffc9a7146101b15780630bb38ab3146101e65780631c9155881461020857600080fd5b366101ac57005b600080fd5b3480156101bd57600080fd5b506101d16101cc36600461194b565b6105d1565b60405190151581526020015b60405180910390f35b3480156101f257600080fd5b5061020661020136600461198a565b61063a565b005b34801561021457600080fd5b506102406102233660046119d0565b600860209081526000928352604080842090915290825290205481565b6040519081526020016101dd565b34801561025a57600080fd5b5061024060065481565b34801561027057600080fd5b5061024061027f3660046119fc565b60009081526020819052604090206001015490565b3480156102a057600080fd5b506102066102af366004611a15565b610948565b3480156102c057600080fd5b506102066102cf366004611a15565b610972565b3480156102e057600080fd5b506102406102ef3660046119d0565b610a03565b34801561030057600080fd5b5061020661030f36600461198a565b610a3c565b34801561032057600080fd5b50600354610334906001600160a01b031681565b6040516001600160a01b0390911681526020016101dd565b61020661035a36600461198a565b610b26565b34801561036b57600080fd5b5061020661037a366004611a45565b610f65565b34801561038b57600080fd5b5061020661039a3660046119fc565b610fe2565b3480156103ab57600080fd5b506102406103ba3660046119d0565b6001600160a01b03919091166000908152600860209081526040808320938352929052205490565b3480156103ee57600080fd5b506101d16103fd366004611a15565b6000918252602082815260408084206001600160a01b0393909316845291905290205460ff1690565b34801561043257600080fd5b50610206611053565b34801561044757600080fd5b50610240600081565b34801561045c57600080fd5b5061020661046b366004611a45565b6110ee565b34801561047c57600080fd5b5061049061048b3660046119d0565b611337565b60408051825167ffffffffffffffff90811682526020808501518216908301528383015116918101919091526060808301516bffffffffffffffffffffffff16908201526080918201516001600160a01b03169181019190915260a0016101dd565b3480156104fe57600080fd5b50600254610334906001600160a01b031681565b34801561051e57600080fd5b506102066113d7565b34801561053357600080fd5b50600454610334906001600160a01b031681565b34801561055357600080fd5b50610206610562366004611a15565b611528565b34801561057357600080fd5b506102407f241ecf16d79d0f8dbfb92cbc07fe17840425976cf0667f022fe9877caa831b0881565b3480156105a757600080fd5b506102066105b63660046119fc565b61154d565b3480156105c757600080fd5b5061024060055481565b60006001600160e01b031982167f7965db0b00000000000000000000000000000000000000000000000000000000148061063457507f01ffc9a7000000000000000000000000000000000000000000000000000000006001600160e01b03198316145b92915050565b60008160055461064a9190611a90565b6002546040517f23b872dd000000000000000000000000000000000000000000000000000000008152336004820152306024820152604481018390529192506001600160a01b0316906323b872dd906064016020604051808303816000875af11580156106bb573d6000803e3d6000fd5b505050506040513d601f19601f820116820180604052508101906106df9190611aa7565b50600480546040517f94b918de0000000000000000000000000000000000000000000000000000000081529182018390526001600160a01b0316906394b918de90602401600060405180830381600087803b15801561073d57600080fd5b505af1158015610751573d6000803e3d6000fd5b50506007546040516370a0823160e01b81523060048201526001600160a01b039091169250632e1a7d4d915082906370a0823190602401602060405180830381865afa1580156107a5573d6000803e3d6000fd5b505050506040513d601f19601f820116820180604052508101906107c99190611ac9565b6040518263ffffffff1660e01b81526004016107e791815260200190565b600060405180830381600087803b15801561080157600080fd5b505af1158015610815573d6000803e3d6000fd5b5050604080516001600160a01b0389166020820152600093500190506040516020818303038152906040529050600083866001600160a01b03166313966db56040518163ffffffff1660e01b8152600401602060405180830381865afa158015610883573d6000803e3d6000fd5b505050506040513d601f19601f820116820180604052508101906108a79190611ac9565b6108b19190611a90565b6003546001546040517f9dbb844d0000000000000000000000000000000000000000000000000000000081529293506001600160a01b03808a1693639dbb844d93869361090d93918216928c928c928b92911690600401611b32565b6000604051808303818588803b15801561092657600080fd5b505af115801561093a573d6000803e3d6000fd5b505050505050505050505050565b600082815260208190526040902060010154610963816115be565b61096d83836115c8565b505050565b6001600160a01b03811633146109f55760405162461bcd60e51b815260206004820152602f60248201527f416363657373436f6e74726f6c3a2063616e206f6e6c792072656e6f756e636560448201527f20726f6c657320666f722073656c66000000000000000000000000000000000060648201526084015b60405180910390fd5b6109ff8282611666565b5050565b6005546001600160a01b03831660009081526008602090815260408083208584529091528120549091610a3591611b76565b9392505050565b3360009081527fe84508f2c7fa9c351146748b3025cb78b45df37d868e48c6a75102fecdeee645602052604090205460ff16610aa85760405162461bcd60e51b815260206004820152600b60248201526a2737ba1036b0b730b3b2b960a91b60448201526064016109ec565b60405163611c68f760e11b81526001600160a01b0385811660048301526024820184905260448201839052608060648301526000608483015284169063c238d1ee9060a4015b600060405180830381600087803b158015610b0857600080fd5b505af1158015610b1c573d6000803e3d6000fd5b5050505050505050565b6001600160a01b03831660009081526008602090815260408083208584529091528120549003610b6157610b5c8484848461063a565b610f5f565b60035460405163611efc0960e01b81526001600160a01b03858116600483015260248201859052600092169063611efc099060440160a060405180830381865afa158015610bb3573d6000803e3d6000fd5b505050506040513d601f19601f82011682018060405250810190610bd79190611bc7565b805190915067ffffffffffffffff1615610c6057805167ffffffffffffffff164210801590610c145750806020015167ffffffffffffffff164211155b610c605760405162461bcd60e51b815260206004820152601060248201527f53616c65206e6f74206f6e676f696e670000000000000000000000000000000060448201526064016109ec565b604081015167ffffffffffffffff161580610d20575060408082015190517efdd58e0000000000000000000000000000000000000000000000000000000081526001600160a01b0387811660048301526024820186905267ffffffffffffffff9092169184919087169062fdd58e90604401602060405180830381865afa158015610cef573d6000803e3d6000fd5b505050506040513d601f19601f82011682018060405250810190610d139190611ac9565b610d1d9190611b76565b11155b610d6c5760405162461bcd60e51b815260206004820152601e60248201527f4d617820746f6b656e732070657220616464726573732072656163686564000060448201526064016109ec565b6002546001600160a01b03858116600090815260086020908152604080832088845290915290205460055491909216916323b872dd91339130918791610db191611b76565b610dbb9190611a90565b6040516001600160e01b031960e086901b1681526001600160a01b03938416600482015292909116602483015260448201526064016020604051808303816000875af1158015610e0f573d6000803e3d6000fd5b505050506040513d601f19601f82011682018060405250810190610e339190611aa7565b5060405163611c68f760e11b81526001600160a01b0386811660048301526024820185905260448201849052608060648301526000608483015285169063c238d1ee9060a401600060405180830381600087803b158015610e9357600080fd5b505af1158015610ea7573d6000803e3d6000fd5b505060025460808401516001600160a01b0388811660009081526008602090815260408083208b84529091529020549216935063a9059cbb925090610eed908690611a90565b6040516001600160e01b031960e085901b1681526001600160a01b03909216600483015260248201526044016020604051808303816000875af1158015610f38573d6000803e3d6000fd5b505050506040513d601f19601f82011682018060405250810190610f5c9190611aa7565b50505b50505050565b7f241ecf16d79d0f8dbfb92cbc07fe17840425976cf0667f022fe9877caa831b08610f8f816115be565b6040517fb336f21f0000000000000000000000000000000000000000000000000000000081526001600160a01b03851660048201526024810184905260448101839052309063b336f21f90606401610aee565b3360009081527fe84508f2c7fa9c351146748b3025cb78b45df37d868e48c6a75102fecdeee645602052604090205460ff1661104e5760405162461bcd60e51b815260206004820152600b60248201526a2737ba1036b0b730b3b2b960a91b60448201526064016109ec565b600655565b3360009081527fe84508f2c7fa9c351146748b3025cb78b45df37d868e48c6a75102fecdeee645602052604090205460ff166110bf5760405162461bcd60e51b815260206004820152600b60248201526a2737ba1036b0b730b3b2b960a91b60448201526064016109ec565b60405133904780156108fc02916000818181858888f193505050501580156110eb573d6000803e3d6000fd5b50565b826001600160a01b03166323bd03863384866001600160a01b031663f1b0d6bb6040518163ffffffff1660e01b8152600401602060405180830381865afa15801561113d573d6000803e3d6000fd5b505050506040513d601f19601f820116820180604052508101906111619190611ac9565b6040516001600160e01b031960e086901b1681526001600160a01b03909316600484015260248301919091526044820152606401602060405180830381865afa1580156111b2573d6000803e3d6000fd5b505050506040513d601f19601f820116820180604052508101906111d69190611aa7565b806112c55750826001600160a01b03166323bd0386336000866001600160a01b031663f1b0d6bb6040518163ffffffff1660e01b8152600401602060405180830381865afa15801561122c573d6000803e3d6000fd5b505050506040513d601f19601f820116820180604052508101906112509190611ac9565b6040516001600160e01b031960e086901b1681526001600160a01b03909316600484015260248301919091526044820152606401602060405180830381865afa1580156112a1573d6000803e3d6000fd5b505050506040513d601f19601f820116820180604052508101906112c59190611aa7565b6113115760405162461bcd60e51b815260206004820152600960248201527f4e6f742061646d696e000000000000000000000000000000000000000000000060448201526064016109ec565b6001600160a01b0390921660009081526008602090815260408083209383529290522055565b6040805160a08101825260008082526020820181905291810182905260608101829052608081019190915260035460405163611efc0960e01b81526001600160a01b038581166004830152602482018590529091169063611efc099060440160a060405180830381865afa1580156113b3573d6000803e3d6000fd5b505050506040513d601f19601f82011682018060405250810190610a359190611bc7565b3360009081527fe84508f2c7fa9c351146748b3025cb78b45df37d868e48c6a75102fecdeee645602052604090205460ff166114435760405162461bcd60e51b815260206004820152600b60248201526a2737ba1036b0b730b3b2b960a91b60448201526064016109ec565b6002546040516370a0823160e01b81523060048201526001600160a01b039091169063a9059cbb90339083906370a0823190602401602060405180830381865afa158015611495573d6000803e3d6000fd5b505050506040513d601f19601f820116820180604052508101906114b99190611ac9565b6040516001600160e01b031960e085901b1681526001600160a01b03909216600483015260248201526044016020604051808303816000875af1158015611504573d6000803e3d6000fd5b505050506040513d601f19601f820116820180604052508101906110eb9190611aa7565b600082815260208190526040902060010154611543816115be565b61096d8383611666565b3360009081527fe84508f2c7fa9c351146748b3025cb78b45df37d868e48c6a75102fecdeee645602052604090205460ff166115b95760405162461bcd60e51b815260206004820152600b60248201526a2737ba1036b0b730b3b2b960a91b60448201526064016109ec565b600555565b6110eb81336116e5565b6000828152602081815260408083206001600160a01b038516845290915290205460ff166109ff576000828152602081815260408083206001600160a01b03851684529091529020805460ff191660011790556116223390565b6001600160a01b0316816001600160a01b0316837f2f8788117e7eff1d82e926ec794901d17c78024a50270940304540a733656f0d60405160405180910390a45050565b6000828152602081815260408083206001600160a01b038516845290915290205460ff16156109ff576000828152602081815260408083206001600160a01b0385168085529252808320805460ff1916905551339285917ff6391f5c32d9c69d2a47ea670b442974b53935d1edc7fd64eb21e047a839171b9190a45050565b6000828152602081815260408083206001600160a01b038516845290915290205460ff166109ff5761171681611758565b61172183602061176a565b604051602001611732929190611c76565b60408051601f198184030181529082905262461bcd60e51b82526109ec91600401611cf7565b60606106346001600160a01b03831660145b60606000611779836002611a90565b611784906002611b76565b67ffffffffffffffff81111561179c5761179c611b89565b6040519080825280601f01601f1916602001820160405280156117c6576020820181803683370190505b5090507f3000000000000000000000000000000000000000000000000000000000000000816000815181106117fd576117fd611d0a565b60200101906001600160f81b031916908160001a9053507f78000000000000000000000000000000000000000000000000000000000000008160018151811061184857611848611d0a565b60200101906001600160f81b031916908160001a905350600061186c846002611a90565b611877906001611b76565b90505b60018111156118fc577f303132333435363738396162636465660000000000000000000000000000000085600f16601081106118b8576118b8611d0a565b1a60f81b8282815181106118ce576118ce611d0a565b60200101906001600160f81b031916908160001a90535060049490941c936118f581611d20565b905061187a565b508315610a355760405162461bcd60e51b815260206004820181905260248201527f537472696e67733a20686578206c656e67746820696e73756666696369656e7460448201526064016109ec565b60006020828403121561195d57600080fd5b81356001600160e01b031981168114610a3557600080fd5b6001600160a01b03811681146110eb57600080fd5b600080600080608085870312156119a057600080fd5b84356119ab81611975565b935060208501356119bb81611975565b93969395505050506040820135916060013590565b600080604083850312156119e357600080fd5b82356119ee81611975565b946020939093013593505050565b600060208284031215611a0e57600080fd5b5035919050565b60008060408385031215611a2857600080fd5b823591506020830135611a3a81611975565b809150509250929050565b600080600060608486031215611a5a57600080fd5b8335611a6581611975565b95602085013595506040909401359392505050565b634e487b7160e01b600052601160045260246000fd5b808202811582820484141761063457610634611a7a565b600060208284031215611ab957600080fd5b81518015158114610a3557600080fd5b600060208284031215611adb57600080fd5b5051919050565b60005b83811015611afd578181015183820152602001611ae5565b50506000910152565b60008151808452611b1e816020860160208601611ae2565b601f01601f19169290920160200192915050565b60006001600160a01b03808816835286602084015285604084015260a06060840152611b6160a0840186611b06565b91508084166080840152509695505050505050565b8082018082111561063457610634611a7a565b634e487b7160e01b600052604160045260246000fd5b805167ffffffffffffffff81168114611bb757600080fd5b919050565b8051611bb781611975565b600060a08284031215611bd957600080fd5b60405160a0810181811067ffffffffffffffff82111715611c0a57634e487b7160e01b600052604160045260246000fd5b604052611c1683611b9f565b8152611c2460208401611b9f565b6020820152611c3560408401611b9f565b604082015260608301516bffffffffffffffffffffffff81168114611c5957600080fd5b6060820152611c6a60808401611bbc565b60808201529392505050565b7f416363657373436f6e74726f6c3a206163636f756e7420000000000000000000815260008351611cae816017850160208801611ae2565b7f206973206d697373696e6720726f6c65200000000000000000000000000000006017918401918201528351611ceb816028840160208801611ae2565b01602801949350505050565b602081526000610a356020830184611b06565b634e487b7160e01b600052603260045260246000fd5b600081611d2f57611d2f611a7a565b50600019019056fea26469706673582212201db6f83b625d5e3b47c55ff927a553492866182b2ec5daf81e7572135160d82b64736f6c63430008110033",
  "linkReferences": {},
  "deployedLinkReferences": {}
}